:020000040800F2
:1000000070C200241104000819670008C9590008CB
:1000100015670008F3160008DD78000800000000EE
:100020000000000000000000000000005103000874
:10003000F716000800000000AD030008416B00083F
:100040002F0400082F0400082F0400082F040008C4
:100050002F0400082F0400082F0400082F040008B4
:100060002F0400082F0400082F0400082F040008A4
:100070002F0400082F0400082F0400082F04000894
:100080002F0400082F0400082F0400082F04000884
:100090002F0400082F0400082F0400082F04000874
:1000A0002F040008516D00082F0400082F040008D9
:1000B000616D00082F0400082F0400082F040008B9
:1000C0002F0400082F0400082F0400082F04000844
:1000D0002F040008557800082F0400082F0400089A
:1000E0002F0400082F040008000000002F0400085F
:1000F0002F0400082F0400082F0400082F04000814
:100100002F0400082F0400082F0400082F04000803
:100110002F0400082F0400082F0400082F040008F3
:100120002F0400082F0400082F0400082F040008E3
:100130002F0400082F0400082F0400082F040008D3
:1001400000000000000000000000000000000000AF
:100150002F0400082F0400082F0400082F040008B3
:100160002F0400082F0400082F0400082F040008A3
:100170002F0400082F0400082F04000800000000CE
:100180002F0400082F0400082F0400082F04000883
:100190002F0400082F0400082F0400082F04000873
:1001A0002F0400082F0400082F0400082F04000863
:1001B0002F0400082F0400082F0400082F04000853
:1001C0002F0400082F0400082F0400082F04000843
:1001D0002F0400082F0400082F0400082F04000833
:1001E0002F0400082F0400082F0400082F04000823
:1001F0002F0400082F0400082F0400082F04000813
:100200002F0400082F0400082F0400082F04000802
:100210002F0400082F0400082F0400082F040008F2
:100220002F0400082F0400082F040008000000001D
:100230002F0400082F040008000000002F0400080D
:100240002F0400082F0400082F0400082F040008C2
:100250002F0400082F0400082F0400082F040008B2
:100260002F0400082F0400082F0400082F040008A2
:100270002F0400082F0400082F04000800000000CD
:100280002F0400082F0400082F04000800000000BD
:10029000000000002F04000800F002F800F049F808
:1002A0000AA090E8000C82448344AAF10107DA45D1
:1002B00001D100F03EF8AFF2090EBAE80F0013F0DA
:1002C000010F18BFFB1A43F001031847C09E00003E
:1002D000E09E0000103A24BF78C878C1FAD85207CF
:1002E00024BF30C830C144BF04680C6070470000B0
:1002F0000023002400250026103A28BF78C1FBD82F
:10030000520728BF30C148BF0B607047662909F00B
:10031000A686002070471FB509F09CFE00F0B4FCD3
:1003200004000020002109F07FFEE0601FBD10B531
:1003300010BD00F0ADFD1146FFF7EDFF07F008FE20
:1003400000F0CBFD03B4FFF7F2FF03BC00F002FEA8
:100350002C4B19680868B0E8F04F80F30988BFF3A8
:100360006F8F4FF0000080F311887047000000008D
:1003700008480068006880F308884FF0000080F3A8
:10038000148862B661B6BFF34F8FBFF36F8F00DF83
:1003900000BF00BF08ED00E0DFF80C00016841F489
:1003A00070010160704700BF88ED00E0EFF3098045
:1003B000BFF36F8F134B1A681EF0100F08BF20EDAC
:1003C000108A20E9F04F106009B44FF0500080F31C
:1003D0001188BFF34F8FBFF36F8F08F003FF4FF00B
:1003E000000080F3118809BC19680868B0E8F04F74
:1003F0001EF0100F08BFB0EC108A80F30988BFF31D
:100400006F8F704718000024EFF3058070470000DD
:100410000A4880470A4880470A480047FEE7FEE747
:10042000FEE7FEE7FEE7FEE7FEE7FEE7FEE7FEE7A4
:1004300005480649064A074B7047000001170008A7
:10044000296C00089902000870BC002470C20024C6
:1004500070BE002470BE002453EA020C00F06980D4
:100460002DE9F04B4FF00006002B1FBFB3FA83F5C8
:1004700003FA05F424FA05F65E4012BF1643B2FAF9
:1004800082F502FA05F4C5F120051EBF22FA05FC2B
:1004900044EA0C04203556EA044C4FEA144418BFD1
:1004A000641C4FF000084FF00009904271EB030C00
:1004B00039D3002919BFB1FA81F701FA07F6B0FA6A
:1004C00080F700FA07F6C7F120071EBF20FA07FCE5
:1004D00046EA0C062037B6FBF4FCA7EB0507103FF5
:1004E00007F01F0BCBF120060CFA0BFB2CFA06F6DB
:1004F00044BFB3460026202FA4BF5E464FF0000B3A
:100500005BEA060C08BF4FF0010B19EB0B09ABFBC4
:10051000027C48EB0608C01B06FB02CC0BFB03CC9D
:1005200071EB0C01C1E70B46024641464846BDE867
:10053000F08B13B54FF000004FF00001AFF30080D7
:10054000BDE81C40704700000FB41CB5084B06AA5C
:100550007B4469460090059800F029FB0446002082
:10056000694600F037FB20461CBC5DF814FB000018
:10057000810600002DE9F0474FF0000A8946044645
:10058000C0F820A02046E1688847002876D02528BA
:1005900006D0D4E901219047206A401C2062F1E78F
:1005A000E168204600258847C4F81CA006460027BD
:1005B000C4F818A02A2E09D0304607F0D9FB38B36A
:1005C00004EB8708303EC8F8186019E059F8041B9E
:1005D000204604EB87029161E1688847012F0646B7
:1005E00018D1E069002820DA25F020051DE0D8F8B0
:1005F000180000EB800006EB40003038C8F8180007
:100600002046E1688847064607F0B2FB0028EED195
:10061000012F0AD02E2E08D12046E16888477F1C82
:100620000646022F45F02005C4DBA069002803DA46
:10063000404245F00105A061E80701D025F0100512
:10064000B6B1A6F14100192802D8203645F400655C
:100650004A463146204625604D46FFF757FE58B1C1
:10066000012806D0ED1D25F0070000F1080989E7F3
:1006700004E005F1040985E730468AE7206ABDE811
:10068000F087032A40F2308010F0030C00F0158050
:1006900011F8013BBCF1020F624498BF11F801CB85
:1006A00000F8013B38BF11F8013BA2F1040298BFEA
:1006B00000F801CB38BF00F8013B11F0030300F054
:1006C0008E82083AC0F0088051F8043B083A51F88D
:1006D00004CBA0E80810F5E7121D5CBF51F8043BFD
:1006E00040F8043BAFF30080D20724BF11F8013B70
:1006F00011F801CB48BF11F8012B24BF00F8013BD2
:1007000000F801CB48BF00F8012B704702F0FF034F
:1007100043EA032242EA024200F095BA4FF0000297
:1007200000B5134694469646203922BFA0E80C50E7
:10073000A0E80C50B1F12001BFF4F7AF090728BFC2
:10074000A0E80C5048BF0CC05DF804EB890028BF3E
:1007500040F8042B08BF704748BF20F8022B11F067
:10076000804F18BF00F8012B7047704770477047E3
:1007700010B500F08DFA006810BD10B5044600F009
:1007800087FA046010BD70472DE9FF4F0C461E46E6
:100790004FF0FF378BB0D2E90001DDF860800A909E
:1007A0008A46C1F30A5505B93D46002108464FF077
:1007B0000000BAF1000F00F4400005DA00EB800001
:1007C0004FF4400101EA50004FEA9059B9F1010F8E
:1007D00000DDB9460A9850EA4A000ED044F610509F
:1007E000A5F2FF3545432F14B8F1000F1ED0754216
:1007F000291E1EDDC9F100021CE0B8F1010F4FF007
:10080000000001D0302103E0F24305E02154401CF8
:10081000B042FBDB30460022002121540B99C1F885
:100820000880C1E900200FB0BDE8F08FBD1B6D1C32
:10083000DEE74A4600DA694206A800F0B3FA06ABE2
:1008400093E8070003AB83E8070050460A9900F0DD
:1008500088FB8DE80700A0F500501F380090039832
:10086000002D0ADD42F21F014A460844002303A975
:100870000390684600F0F1FD09E0A0F500504A46FB
:100880001F38002303A90390684600F0FBFD8DE8A4
:1008900007000004000C03D04FF0FF30410800E0D7
:1008A0001046B8F1000F03D00022009215461EE05A
:1008B000751E05D400F0F0F9303262556D1EF9D581
:1008C000B3460122084302D000227F1C04E02078B6
:1008D000302801D100227F1E002A099784D01DE014
:1008E000112D07DA00F0D8F9303262556D1C50EA4C
:1008F0000102F5D1084302D00098C8B10EE00021F2
:10090000681E05E0235C625C63542254401E491C4F
:100910008142F7DBAB46A81B401E0990002004F87B
:100920000B000B98099AC0F80880C0E9002B7AE701
:1009300011264FF0000857E72DE9F04F884604468E
:10094000D21D22F0070191B0D1E90001CDE90A01E1
:1009500006F0C6FF02460B98C00F01D02D2007E01D
:100960002068810701D52B2002E0202101EAC00088
:10097000032A099001D0072A05DB03464146204699
:1009800000F0D0F90BE12078800601D5E06900E0A5
:100990000620B8F1650F814606D0B8F1660F18D071
:1009A000B8F1670F70D131E00020B9F1110F00905C
:1009B00001DB112301E009F101030AAA01A90CA836
:1009C000FFF7E2FEDDE90C70002609F10105834620
:1009D00047E001204B4600904FF000470AAA01A9CA
:1009E0000CA8FFF7D1FEDDE90DB00C995D4600269D
:1009F00010B909F101000D18B9EB050003D4C0F1DD
:100A0000FF3609F10105A5EB09002BE0B9F1010F53
:100A100001DA4FF001090020B9F1110F00904846AA
:100A200001DD112300E003460AAA01A90CA8FFF783
:100A3000ABFEDDE90C704D460026834620780007AA
:100A40000AD4AB4500DA5D4601A8012D04DD411949
:100A500011F8011C302907D04F4502DA17F1040FB5
:100A600004DA012082460FE06D1EEEE7002F02DC63
:100A7000ED1B3E4403E0781CA84200DD7D1CB81B42
:100A800000F1010A4FF000472078000703D4AA457F
:100A900001DB4FF0FF3A0021B7F1004F0DF14308A1
:100AA0008DF8431024D002202B23002F01DA7F423F
:100AB0002D230A21021EA0F1010000DC5FB197FB8B
:100AC000F1FC97FBF1F201FB1C7C17460CF1300C9A
:100AD00008F801CDEEE7A8F10100037021880905AF
:100AE00001D5452100E06521A0F1010800F8011CB5
:100AF00009980FA9A1EB0807FF1D00B101204119BA
:100B000001EBEA70A1693844081A401EA061207800
:100B1000C00602D42046AFF30080099828B1D4E97A
:100B200001219047206A401C20622078C00622D50F
:100B30002046AFF300801EE0002E04DBB34502DD4B
:100B400001A8805D00E03020D4E901219047206AAF
:100B5000401C2062761CAAF101005FEA000A0AD15B
:100B600000F092F8C0680168405CD4E90121904728
:100B7000206A401C2062281EA5F10105DCDC07E08C
:100B8000D4E9012118F8010B9047206A401C20622B
:100B9000381EA7F10107F3DC2046AFF300800320E5
:100BA00011B041E601694A1C02610878704700B53E
:100BB0008FB0CDE901310021059105497944CDE996
:100BC000031011466846FFF7D5FC0FB000BD0000CA
:100BD000E5FFFFFF0A6802F8010B0A60704710B5D5
:100BE000203AC0F00B80B1E81850203AA0E8185025
:100BF000B1E81850A0E81850BFF4F5AF5FEA027CE6
:100C000024BFB1E81850A0E8185044BF18C918C054
:100C1000BDE810405FEA827C24BF51F8043B40F8F5
:100C2000043B08BF7047D20728BF31F8023B48BFDA
:100C300011F8012B28BF20F8023B48BF00F8012B18
:100C400070474FF000020429C0F0128010F0030C2E
:100C50003FF466ADCCF1040CBCF1020F18BF00F8F4
:100C6000012BA8BF20F8022BA1EB0C01FFF758BD08
:100C70005FEAC17C24BF00F8012B00F8012B48BFBC
:100C800000F8012B704700000048704730BC00247A
:100C90000048704710BC002430B5B0F10A024FEA9A
:100CA000900E71F100034EEA817EB0EB0E0061EB15
:100CB00091014FEA101E4EEA017E10EB0E0041EB4F
:100CC00011114FEA102E4EEA016E10EB0E0041EBAF
:100CD00011214FEA104E4EEA014E10EB0E0041EB8F
:100CE0001141401841F100014FEAD00040EA417043
:100CF0004FEAD10110EB80054FEA810444EA907479
:100D000044EB01046D1944EB0404521BA3414FF062
:100D1000000348BF0A3200D530BD401C41F100013C
:100D200030BD00002DE9F0411F460446032601684E
:100D3000072A01F4006004DB08B116A505E016A53A
:100D400003E008B115A500E015A521F01000206012
:100D5000A069C01EA0610FB1401EA0612046AFF384
:100D600000804FB1D4E9012138469047206A401CE9
:100D70002062C01C206206E0206AFAE7D4E9012163
:100D800015F8010B9047761EF8D22046AFF300808D
:100D9000BDE8F0814E414E006E616E00494E460046
:100DA000696E66002DE9F047814616468AB03548DF
:100DB00078440DC88DE80D0032487844801C03AC9F
:100DC0000DC884E80D0041F69B300844372190FBA4
:100DD000F1F290FBF1F5A5F1800501FB12041B3C3B
:100DE00002D56442012000E00020DFF898A0804690
:100DF0000027FA44AAF1BE0A0EE0E0070AD0324604
:100E0000684607EB470101230AEB810100F03AFB3A
:100E10008DE8070064107F1C002CEED1194F7F4431
:100E2000AE3F19E0E80715D007EB04100DF1180AE2
:100E300090E80E008AE80E00C068F04201D19819CF
:100E400008903246012306A903A800F01BFB03AB60
:100E500083E807006D10641C002DE3D14FF00103FF
:100E600032466946B8F1000F03A802D000F0F5FA47
:100E700001E000F007FBC9E90001C9F808200AB049
:100E8000BDE8F087AC9300000048704710BC002418
:100E90007546FFF7F9FFAE4605006946534620F058
:100EA0000700854618B020B5FFF7C2FABDE820401C
:100EB0004FF000064FF000074FF000084FF0000B16
:100EC00021F00701AC46ACE8C009ACE8C009ACE8C9
:100ED000C009ACE8C0098D46704710B50446AFF3B1
:100EE00000802046BDE81040FFF72CBA4FF0013CCF
:100EF00050F8042B51F8043B9A4215D1A2EB0C0395
:100F0000934313EACC130BD150F8042B51F8043B54
:100F10009A4209D1A2EB0C03934313EACC13E7D016
:100F20004FF00000704700BFD01A01BAB1FA81F14A
:100F300001F0180122FA01F0CB40C1F12001DBB22F
:100F4000C0B2C01A2CFA01F3D11A914311EAC311AD
:100F5000E6D1704701491820ABBEFEE7260002002B
:100F600070475FEA400C08BF91F0000F4FEA8C23F6
:100F70004FEAC12243EA51514FEA1C5018BF00F515
:100F8000F0404FEA300018BF41F000415FEA6C5C6E
:100F900000F02980BCF1FF3F08BF40F0804070475F
:100FA000130C06BF12044FF0100C4FF0000C130E80
:100FB00004BF12020CF1080C130F04BF12010CF154
:100FC000040C930F04BF92000CF1020CD30F04BF6A
:100FD00052000CF1010C11464FF00002A0F11F006D
:100FE000A0EB0C00704711F0004F08BF704731F0C4
:100FF00000413FF4D5AF0B0C06BF09044FF0100CB5
:101000004FF0000C0B0E04BF09020CF1080C0B0F83
:1010100004BF09010CF1040C8B0F04BF89000CF113
:10102000020CCB0F04BF49000CF1010CCCF12003E2
:10103000A0EB0C0022FA03F302FA0CF241EA0301DE
:1010400000F10100704720F07F4C80EA030023F09C
:101050007F47ACEB070303F57C5300F0004003F13E
:10106000FF032DE980494FEA154B09B44FEA1443B9
:1010700025EA0B4E24EA03480FF2042606EB132759
:1010800049083E785FEA320203FB0667C7F50007AE
:1010900007FB06F64FEA54374FEAD64606F102063A
:1010A00007FB066CCCF1005C4FEA1C472CEA074CAE
:1010B00007FB06F40CFB06F504EB15464FEA961603
:1010C00034BF00204FF000404FEAD13706FB07FC49
:1010D0004FEA1C4C0CFB0BF7D21B03FB0CF761EB2C
:1010E00007010CFB0EF7B0EB074072EB17420CFB4D
:1010F00008F734BFA2EB0742B2EB074261EB17419E
:101100004FEA0C444FEA910706FB07FC4FEA1C4CE0
:101110000CFB0BF7B0EBC74072EB573203FB0CF73D
:1011200034BFA2EBC742B2EBC74261EB57310CFBB5
:101130000EF7B0EBC70072EB57720CFB08F734BF29
:10114000A2EBC702B2EBC70261EB5771039F4FEAF4
:10115000816141EA921104EBCC044FEAD1374FEAA6
:10116000826206FB07FC42EA90124FEA80604FEA77
:101170001C4C0CFB0BF7D21B03FB0CF761EB0701BC
:101180000CFB0EF7B0EB074072EB17420CFB08F7B5
:1011900034BFA2EB0742B2EB074261EB17414FEAC3
:1011A0008C554FEA910704EB9C2406FB07FC4FEAA1
:1011B0001C4C0CFB0BF7B0EBC74072EB573203FB38
:1011C0000CF734BFA2EBC742B2EBC74261EB573119
:1011D0000CFB0EF7B0EBC70072EB57720CFB08F775
:1011E00034BFA2EBC702B2EBC70261EB577115EB3C
:1011F0004C254FEA816141EA92114FEA82624FEA3F
:10120000D13742EA901206FB07FC44F100044FEA92
:1012100080604FEA1C4C0CFB0BF7D21B03FB0CF756
:1012200061EB07010CFB0EF7B0EB074072EB1742C6
:101230000CFB08F734BFA2EB0742B2EB074261EBAD
:10124000174115EB1C154FEA813141EA92414FEAF3
:10125000823242EA90424FEA80304FEA0C7644F103
:10126000000448EA03434EEA0B484FF0000EB2EB8D
:10127000080C71EB030724BF624639464EEB0E0E95
:101280004FF0000B0018524149414BEB0B0BB2EBF6
:10129000080C71EB03077BF1000B24BF6246394653
:1012A0004EEB0E0E4FF0000B0018524149414BEB34
:1012B0000B0BB2EB080C71EB03077BF1000B24BFA7
:1012C000624639464EEB0E0E51EA020718BF46F051
:1012D000010616EB0E7655F1000254F1000103D51C
:1012E000BDE88901BDE80088BDE88901BDE8004886
:1012F000B619524141EB0101A3F10103704780800F
:101300007F7E7D7C7B7A797877767675747372715F
:1013100071706F6E6E6D6C6C6B6A6A696868676617
:1013200066656464636362616160605F5F5E5E5DA9
:101330005D5C5C5B5B5A5A5959585857575656551D
:1013400055555454535352525251515050504F4F7F
:101350004F4E4E4D4D4D4C4C4C4B4B4B4A4A4A49CF
:101360004949484848474747474646464545454412
:101370004444444343434342424242414141002B9F
:101380009C4630D477002BD01CB54FEA370703B406
:101390004FF010004FF01001BAF1000F06D0BCF171
:1013A000000FDCBF40F0080040F008014FF00000E3
:1013B0000FBCBDE810400BF1010BBBF1010F08BFE2
:1013C0005FEA170722BF12F1010211F101014FF08C
:1013D000004143F1000300F0004043EA0000704781
:1013E000F9D35708D0E746EA064613F1400F4FEA13
:1013F00016461FDD13F1200FDFBF16430A460021FA
:1014000020335B42BED0C3F1200746EA064602FA0B
:1014100007F74FEA164646EA0706C3F1200722FA05
:1014200003F201FA07F721FA03F14FF0000342EA51
:101430000702A7E746EA020646EA06464FEA1646CC
:1014400046EA0106BCBF46EA0646360C4FF00003EA
:101450004FF000024FF0000194E72DE9804C9A46CE
:10146000934670B491E8380007C831EA400C48BF91
:1014700034EA430C03D5FFF7E6FDFFF780FFF0BC2D
:10148000BDE8008C2DE9804C9A46934670B491E8F3
:10149000380007C810F0804F08BF13F0804F03D109
:1014A00000F005F8FFF76BFFF0BCBDE8008C20F002
:1014B0007F4780EA030023F07F4C07EB0C03A3F582
:1014C0007C5300F00040A3F1FE0392F0000F00F007
:1014D000B38095F0000F00F077802DE901494FEAC5
:1014E00011404FEA144621EA004800FB06FC24EABA
:1014F000064708FB06F607FB08F800FB07F718EBA2
:1015000006484CEB164C4FEA124B18EB07484FEAD3
:1015100015464CEB174022EA0B4E0BFB06FC25EA66
:1015200006470EFB06F607FB0EFE0BFB07F71EEB4E
:10153000064E4CEB164C4FF000061EEB074E4CEBE4
:10154000174B18EB0B0840F1000018EB0E0B58EB93
:10155000000840F100008F1A4FF000013CBFC94362
:10156000661B14BFB5EB040C00213CBFC943F61B3E
:101570004FEA17444EEA8E0E27EA04454FEA1C470D
:1015800004FB07622CEA074C05FB07F70CFB05F68A
:1015900004FB0CFC16EB074642EB174216EB0C461D
:1015A00042EB1C421BEB060658EB0202414146EAA5
:1015B0009E0601D5BDE80189B619524141EB0101F2
:1015C000A3F10103BDE801894FEA14454FEA114731
:1015D00024EA054621EA074C05FB07F406FB07F75A
:1015E0000CFB06F105FB0CFC11EB074144EB174427
:1015F0004FEA124711EB0C4144EB1C4422EA074C22
:1016000005FB07F206FB07F70CFB06F605FB0CFCD7
:1016100016EB074642EB174216EB0C4642EB1C4515
:101620006A1854F1000148BF7047B619524141EBA6
:101630000101A3F10103704795F0000F37D04FEA85
:1016400011424FEA144721EA024624EA074C02FB02
:1016500007F106FB07F70CFB06F402FB0CFC14EB8E
:10166000074441EB17414FEA154714EB0C4441EB9B
:101670001C4125EA074C02FB07F506FB07F70CFBAC
:1016800006F602FB0CFC16EB074645EB174516EB7E
:101690000C4645EB1C42121951F1000148BF70473E
:1016A000B619524141EB0101A3F1010370474FEA22
:1016B00014454FEA114724EA054621EA074C05FB89
:1016C00007F106FB07F70CFB06F24FF0000605FBDF
:1016D0000CFC12EB074241EB174112EB0C4251EBB1
:1016E0001C4148BF7047921841EB0101A3F101036F
:1016F000704700BFFEE7704772B600BFFEE700000C
:101700000748006840F002000549086000BF04482F
:101710000838006800F400500028F8D07047000036
:101720000C48025810B58AB09FED240A8DED090AC5
:101730009FED220A8DED080A9FED200A8DED070A24
:101740009FED1E0A8DED060A9FED1C0A8DED050A20
:101750009FED1A0A8DED040AB3EE090A8DED030A16
:10176000002411E003A804A905AA06ABCDE90021D5
:10177000029007AA08A909A806F01AFB00B105E023
:10178000642000F059FC641C032CEBD300BF9DEDDA
:10179000071ADDED080A9DED090A094804F0D6FB99
:1017A000DDED071A9DED081ADDED090A9DED030A2E
:1017B000034804F0DCFB0AB010BD0000000000008C
:1017C000B8BB00242DE9F041044600F053FD8046EB
:1017D00014B90120BDE8F08194F83500022808D042
:1017E0008020606500BF002084F8340000BF012025
:1017F000F0E7FE492068884249D0FC49183120684A
:10180000884244D0F9493031206888423FD0F749B6
:101810004831206888423AD0F449603120688842D3
:1018200035D0F24978312068884230D0EF49903184
:10183000206888422BD0ED49A8312068884226D004
:10184000EB492068884222D0E94918312068884253
:101850001DD0E74930312068884218D0E44948312A
:101860002068884213D0E2496031206888420ED057
:10187000DF4978312068884209D0DD4990312068FD
:10188000884204D0DA49A8312068884201D1012079
:1018900000E0002068B12068006820F01E00216888
:1018A00008602068406920F0800021684861256850
:1018B00006E02068006820F00E00216808602568B6
:1018C000CA492068884270D0C849183120688842C7
:1018D0006BD0C64930312068884266D0C349483150
:1018E0002068884261D0C1496031206888425CD05C
:1018F000BE4978312068884257D0BC499031206871
:10190000884252D0B949A831206888424DD0B849A0
:101910002068884249D0B64918312068884244D0AE
:10192000B3493031206888423FD0B14948312068FE
:1019300088423AD0AE4960312068884235D0AC49FF
:1019400078312068884230D0A94990312068884297
:101950002BD0A749A8312068884226D0A549206805
:10196000884222D0A3491431206888421DD0A14961
:1019700028312068884218D09E493C31206888422E
:1019800013D09C495031206888420ED09949643167
:101990002068884209D0974978312068884204D06D
:1019A00094498C312068884201D1012000E0002058
:1019B00028B1206E006820F48070216E08608B4989
:1019C0002068884249D0894918312068884244D02B
:1019D00086493031206888423FD0844948312068A8
:1019E00088423AD0814960312068884235D07F49A9
:1019F00078312068884230D07C4990312068884214
:101A00002BD07A49A8312068884226D078492068AE
:101A1000884222D076491831206888421DD0744906
:101A200030312068884218D0714948312068884296
:101A300013D06F496031206888420ED06C497831EC
:101A40002068884209D06A4990312068884204D0D1
:101A50006749A8312068884206D12068006820F0D4
:101A600001002168086005E02068006820F001009E
:101A70002168086011E000F0FDFBA0EB08000528DC
:101A80000BD920206065032084F8350000BF0020BA
:101A900084F8340000BF01209CE6286800F00100B3
:101AA0000028E8D151492068884249D04F4918316F
:101AB0002068884244D04D493031206888423FD068
:101AC0004A494831206888423AD048496031206804
:101AD000884235D0454978312068884230D0434922
:101AE0009031206888422BD04049A8312068884234
:101AF00026D03F492068884222D03D4918312068CD
:101B000088421DD03A4930312068884218D038497F
:101B100048312068884213D03549603120688842B6
:101B20000ED0334978312068884209D0304990314D
:101B30002068884204D02E49A8312068884201D10B
:101B4000012000E0002040B1A66D94F85C0000F098
:101B50001F013F208840B06007E0A76D94F85C004B
:101B600000F01F01012088407860204920688842E9
:101B700076D01E4918312068884271D01B49303117
:101B8000206888426CD0194948312068884267D063
:101B9000164960312068884262D014497831206843
:101BA00088425DD0114990312068884258D00F4951
:101BB000A8312068884253D00D49206888424FD010
:101BC0000B491831206888424AD0094930312068D1
:101BD000884245D0064948312068884240D00449AF
:101BE0006031206888423BD0014905E01000024086
:101BF00010040240085402587831206888422FD0DF
:101C00002549206888422BD0234918312068884212
:101C100026D022492068884222D0204914312068E9
:101C200088421DD01D4928312068884218D01B49A0
:101C30003C312068884213D01849503120688842CE
:101C40000ED0164964312068884209D01349783192
:101C50002068884204D011498C312068884201D123
:101C6000012000E0002068B1D4E919104860E06E5E
:101C700040B1E06E006820F48070E16E0860D4E945
:101C80001C104860012084F8350000BF002084F853
:101C9000340000BF00BF9DE5A00402400854025874
:101CA00070B504460CB9012070BD94F835000228C7
:101CB00003D0802060650120F6E7DC492068884277
:101CC00049D0DA4918312068884244D0D7493031A8
:101CD000206888423FD0D5494831206888423AD0B0
:101CE000D24960312068884235D0D04978312068A7
:101CF000884230D0CD499031206888422BD0CB49E2
:101D0000A8312068884226D0C9492068884222D05C
:101D1000C7491831206888421DD0C5493031206834
:101D2000884218D0C24948312068884213D0C0493F
:101D30006031206888420ED0BD49783120688842E1
:101D400009D0BB4990312068884204D0B849A831F5
:101D50002068884201D1012000E00020F0B3042077
:101D600084F83500B149206888424BD0AF4918311A
:101D70002068884246D0AD4930312068884241D041
:101D8000AA494831206888423CD0A849603120687F
:101D9000884237D0A54978312068884232D0A3499B
:101DA0009031206888422DD0A049A831206888420F
:101DB00028D09F492068884224D09D491831206846
:101DC00088421FD09A493031206888421AD09849F9
:101DD00048312068884215D0954900E020E0603104
:101DE000206888420ED0924978312068884209D014
:101DF0008F4990312068884204D08D49A8312068ED
:101E0000884206D12068006820F00100216808603F
:101E100009E12068006820F001002168086002E103
:101E20002068006820F00E00216808607F49206863
:101E3000884249D07D4918312068884244D07B4986
:101E40003031206888423FD0784948312068884244
:101E50003AD0764960312068884235D0734978316C
:101E60002068884230D071499031206888422BD058
:101E70006E49A8312068884226D06D492068884282
:101E800022D06B491831206888421DD06849303112
:101E90002068884218D0664948312068884213D0AB
:101EA00063496031206888420ED0614978312068EA
:101EB000884209D05E4990312068884204D05C494C
:101EC000A8312068884206D12068006820F001000F
:101ED0002168086005E02068006820F001002168A2
:101EE000086052492068884270D0504918312068F3
:101EF00088426BD04D4930312068884266D04B49CA
:101F000048312068884261D0484960312068884261
:101F10005CD0464978312068884257D04349903197
:101F20002068884252D04149A831206888424DD06B
:101F30003F492068884249D03D491831206888428D
:101F400044D03B493031206888423FD0384948313D
:101F5000206888423AD0364960312068884235D0BE
:101F6000334978312068884230D031499031206837
:101F700088422BD02E49A8312068884226D02D498E
:101F80002068884222D02B491431206888421DD015
:101F9000284928312068884218D026493C312068D9
:101FA000884213D023495031206888420ED02149FD
:101FB00064312068884209D01E49783120688842FF
:101FC00004D01C498C312068884201D1012000E0F6
:101FD0000020D8B1206E006820F48070216E086067
:101FE000A56D94F85C0000F01F0101208840686036
:101FF000D4E919104860E06E40B1E06E006820F44A
:102000008070E16E0860D4E91C104860012084F8FB
:10201000350000BF002084F8340000BF206D10B1EF
:102020002046216D884700203EE600001000024057
:10203000100402400854025870B5044600F01AF922
:1020400006462546681C10B104480078054400BFC8
:1020500000F010F9801BA842FAD370BD0C000024D8
:10206000F8B502460B4600216F4DD7E001278F409F
:102070001E6806EA0704002C72D01E7906F00306DB
:10208000012E04D01E7906F00306022E13D19068AB
:102090004F000326BE40B0434F00DE68BE403043D1
:1020A0009060506801268E40B0431E79C6F300163A
:1020B0008E40304350601E7906F00306032E09D08F
:1020C000D0684F000326BE40B0434F009E68BE401C
:1020D0003043D0601E7906F00306022E13D1CF08DC
:1020E00002F1200656F827004E07F70E0F26BE40D5
:1020F000B0434F07FF0E1E69BE403043CF0802F1C8
:10210000200646F8270010684F000326BE40B04363
:102110001E7906F003064F00BE40304310605E6833
:1021200006F44036002E78D000BF404E366846F0A8
:1021300002063E4F3E603E46366806F002060096B6
:1021400000BF00BF3A4E8F0856F827008E07370FA2
:102150000F26BE40B043374EB24202D100262EE0D9
:102160005BE0354EB24201D1012628E0334EB24247
:1021700001D1022623E0324EB24201D103261EE0F5
:10218000304EB24201D1042619E02F4EB24201D1A5
:10219000052614E02D4EB24201D106260FE02C4E4A
:1021A000B24201D107260AE02A4EB24201D10826E6
:1021B00005E0294EB24201D1092600E00A268F0728
:1021C0003F0FBE4030431A4E8F0846F827004FF0AD
:1021D000B0463068A0435E6806F4801606B120431E
:1021E0004FF0B04630607068A0435E6806F4001699
:1021F00006B120434FF0B04670606868A0435E6847
:1022000006F4003606B1204368602868A0435E6883
:1022100006F4803606B120432860491C1E68CE4073
:10222000002E7FF423AFF8BD80000058F44402581C
:102230000804005800000258000402580008025820
:10224000000C0258001002580014025800180258DE
:10225000001C025800200258002402580AB1816173
:1022600001E00B048361704701480068000C70476F
:102270000010005C01480068704700000400002462
:102280000348006803490978084401490860704719
:10229000040000240C00002410B5032000F044F9D1
:1022A00001F08CFC10490968C1F303210F4A515C0D
:1022B00001F01F0120FA01F40B48006800F00F0044
:1022C0001146085C00F01F0024FA00F0084908607D
:1022D000084804600F2000F00FF808B1012010BD7D
:1022E00000F0B8F80020FAE718440258D4A000081B
:1022F000140000241000002470B58AB00446102C8D
:102300000AD200222146192000F0D0F8192000F04E
:10231000B9F81948046002E001200AB070BD00BF9E
:102320001648006840F0010014490860084600683B
:1023300000F00100009000BF00BF01A902A801F059
:10234000BDFB01F029FC45000D48B5FBF0F0461E31
:102350000C480D49086040F2E7310B48C160466007
:1023600000210161816002F025FD18B9064802F0E4
:1023700079FDD2E70120D0E708000024F04402589C
:1023800040420F00000001400C0200244178154A31
:10239000116014490831096821F00101114A08321D
:1023A0001160121F41681160017B0907C27A41EA7E
:1023B0000261827A41EAC241427B41EA8241827BE8
:1023C00041EA4241C27B41EA0241427A41EA0221AA
:1023D000027A41EA420102781143024A083211604E
:1023E0007047000098ED00E000BF00BF00BFBFF3E2
:1023F0005F8F00BF00BF00BF0548006820F4803039
:1024000003490860002002497031086070470000ED
:1024100024ED00E040F001010D4A11600C497039D3
:10242000096841F480310A4A703A116000BF00BF68
:1024300000BFBFF34F8F00BF00BF00BF00BF00BF92
:1024400000BFBFF36F8F00BF00BF00BF7047000029
:1024500094ED00E008B500BF0948006840F00200B4
:10246000074908600846006800F00200009000BFBD
:1024700000BF00220F21901E00F018F808BD0000D8
:10248000F44402580146084600280DDB00BF00BF97
:1024900000F01F0301229A4043099B0003F1E0234F
:1024A000C3F8002100BF00BF00BF70472DE9F05FF7
:1024B00080460D46164605F03FFA074639462A463D
:1024C000334601F00700C0F1070ABAF1040F02D940
:1024D0004FF0040A01E0C0F1070AD14600F1040AF6
:1024E000BAF1070F02D24FF0000A01E0A0F1030A8F
:1024F000D4464FF0010A0AFA09FAAAF1010A0AEAD7
:10250000020A0AFA0CFA4FF0010B0BFA0CFBABF1C2
:10251000010B0BEA030B4AEA0B042146404605F087
:1025200013FABDE8F09F000000BF00F00702064B61
:1025300019684FF6FF031940044B0B4343EA02218D
:10254000014B196000BF70470CED00E00000FA0578
:1025500070B5044615480068C0F3800048B91348B8
:10256000006800F00700A04201D0012070BD0020EB
:10257000FCE70E48006820F0070020430B49086084
:10258000FFF778FE054607E0FFF774FE401BB0F545
:102590007A7F01D90120E9E7044808380068C0F3D0
:1025A00040300028F0D00020E0E700000C4802583E
:1025B00010B501F0B9FA05490968C1F30211044ADE
:1025C000515C01F01F01C84010BD000020440258BA
:1025D000D4A0000870B50146844D2D6805F00303B2
:1025E000824D2D68C5F30530804D2D1D2D68C5F336
:1025F00000147E4D14352D68C5F3CC0515FB04F58C
:1026000001EE105AB8EE411AF0EE410A00286FD0E0
:1026100023B1012B4ED0022B6BD16BE0734D283DC3
:102620002D68C5F340153DB3704D283D2D68C5F3A9
:10263000C1066F4D25FA06F201EE102AF8EE411A96
:1026400001EE100AB8EE411A81EE812A9FED691A57
:10265000C0EE811A654D10352D68C5F3080501EEF1
:10266000105AB8EE411A31EE811AF7EE001A31EE27
:10267000211A22EE010A1CE001EE100AB8EE411AFE
:10268000DFED5D1A81EE812A9FED5A1AC0EE811AA4
:10269000564D10352D68C5F3080501EE105AB8EEF9
:1026A000411A31EE811AF7EE001A31EE211A22EEAC
:1026B000010A5BE001EE100AB8EE411ADFED4F1A95
:1026C00081EE812A9FED4B1AC0EE811A474D1035DD
:1026D0002D68C5F3080501EE105AB8EE411A31EE27
:1026E000811AF7EE001A31EE211A22EE010A3DE0BE
:1026F00077E01DE001EE100AB8EE411A9FED402A86
:10270000C2EE011A9FED3B1A80EE812A374D10353B
:102710002D68C5F3080501EE105AB8EE411A32EEE5
:10272000011AB7EE002A31EE021A21EE810A1DE0ED
:1027300001EE100AB8EE411ADFED301A81EE812A5F
:102740009FED2C1AC0EE811A284D10352D68C5F367
:10275000080501EE105AB8EE411A31EE811AF7EE73
:10276000001A31EE211A22EE010A00BF00BF1F4DF0
:1027700010352D68C5F3462501EE105AB8EE411A02
:10278000F7EE001A31EE211AC0EE011ABCEEE11A82
:1027900081ED001A154D10352D68C5F3064501EE83
:1027A000105AB8EE411AF7EE001A31EE211AC0EEB7
:1027B000011ABCEEE11A81ED011A0C4D10352D689D
:1027C000C5F3066501EE105AB8EE411AF7EE001A8D
:1027D00031EE211AC0EE011ABCEEE11A81ED021AA7
:1027E00003E000250D604D608D6070BD28440258E7
:1027F0000090D003000000460024744C0024744A6A
:1028000020BCBE4B70B50146844D2D6805F0030316
:10281000824D2D68C5F30550804D2D1D2D68C5F3E3
:1028200000247E4D1C352D68C5F3CC0515FB04F541
:1028300001EE105AB8EE411AF0EE410A00286FD0AE
:1028400023B1012B4ED0022B6BD16BE0734D283D91
:102850002D68C5F340153DB3704D283D2D68C5F377
:10286000C1066F4D25FA06F201EE102AF8EE411A64
:1028700001EE100AB8EE411A81EE812A9FED691A25
:10288000C0EE811A654D18352D68C5F3080501EEB7
:10289000105AB8EE411A31EE811AF7EE001A31EEF5
:1028A000211A22EE010A1CE001EE100AB8EE411ACC
:1028B000DFED5D1A81EE812A9FED5A1AC0EE811A72
:1028C000564D18352D68C5F3080501EE105AB8EEBF
:1028D000411A31EE811AF7EE001A31EE211A22EE7A
:1028E000010A5BE001EE100AB8EE411ADFED4F1A63
:1028F00081EE812A9FED4B1AC0EE811A474D1835A3
:102900002D68C5F3080501EE105AB8EE411A31EEF4
:10291000811AF7EE001A31EE211A22EE010A3DE08B
:1029200077E01DE001EE100AB8EE411A9FED402A53
:10293000C2EE011A9FED3B1A80EE812A374D183501
:102940002D68C5F3080501EE105AB8EE411A32EEB3
:10295000011AB7EE002A31EE021A21EE810A1DE0BB
:1029600001EE100AB8EE411ADFED301A81EE812A2D
:102970009FED2C1AC0EE811A284D18352D68C5F32D
:10298000080501EE105AB8EE411A31EE811AF7EE41
:10299000001A31EE211A22EE010A00BF00BF1F4DBE
:1029A00018352D68C5F3462501EE105AB8EE411AC8
:1029B000F7EE001A31EE211AC0EE011ABCEEE11A50
:1029C00081ED001A154D18352D68C5F3064501EE49
:1029D000105AB8EE411AF7EE001A31EE211AC0EE85
:1029E000011ABCEEE11A81ED011A0C4D18352D6863
:1029F000C5F3066501EE105AB8EE411AF7EE001A5B
:102A000031EE211AC0EE011ABCEEE11A81ED021A74
:102A100003E000250D604D608D6070BD28440258B4
:102A20000090D003000000460024744C0024744A37
:102A300020BCBE4B2DE9F04104460025A8464FF0CE
:102A40000062D4E900101140002013465940404074
:102A5000014331D1A06E48B1B0F5801F0DD0B0F563
:102A6000001F11D0B0F5401F16D114E0F9480068DE
:102A700040F40030F749086010E0022104F108003A
:102A800003F04CFE054609E0022104F1280003F0A2
:102A9000F7FE054602E001E0012500BF00BF55B981
:102AA000EC482430006820F44010A16E0843E94946
:102AB0002431086000E0A8464FF48073D4E9001088
:102AC000194000205940404001432ED1A06D0528F7
:102AD0001BD2DFE800F0030A11181900DD48006876
:102AE00040F40030DB49086011E0002104F10800E7
:102AF00003F014FE05460AE0002104F1280003F06B
:102B0000BFFE054603E002E001E0012500BF00BF73
:102B100055B9D0482430006820F00700A16D084363
:102B2000CC492431086000E0A8464FF40073D4E992
:102B300000101940002059404040014334D1E06D5D
:102B4000802818D003DC40B140281DD10CE0C028FB
:102B500018D0B0F5807F17D115E0BE48006840F46A
:102B60000030BC49086011E0002104F1080003F0C6
:102B7000D5FD05460AE0002104F1280003F080FE9F
:102B8000054603E002E001E0012500BF00BF55B9A2
:102B9000B0482430006820F4E070E16D0843AD498E
:102BA0002431086000E0A8464FF48063D4E90010A7
:102BB0001940002059404040014339D1D4F8A800C1
:102BC000B0F5800F1AD004DC50B1B0F5001F1ED153
:102BD0000DE0B0F5C00F18D0B0F5000F17D115E01B
:102BE0009C48006840F400309A49086011E00021D8
:102BF00004F1080003F092FD05460AE0002104F10B
:102C0000280003F03DFE054603E002E001E0012557
:102C100000BF00BF5DB98F482C30006820F4600011
:102C2000D4F8A81008438B492C31086000E0A8466E
:102C30004FF40062D4E900101140002013465940BF
:102C40004040014339D1D4F8AC00B0F1007F1AD034
:102C500004DC50B1B0F1807F1ED10DE0B0F1407FB7
:102C600018D0B0F1806F17D115E07A48006840F4B1
:102C700000307849086011E0002104F1080003F0F9
:102C80004DFD05460AE0002104F1280003F0F8FD9F
:102C9000054603E002E001E0012500BF00BF5DB989
:102CA0006C482C30006820F0E060D4F8AC10084389
:102CB00068492C31086000E0A8464FF00073D4E961
:102CC00000011840002158404940084328D1E06CD9
:102CD000A8B1102804D0202809D0302810D10DE048
:102CE0005C48006840F400305A4908600AE002215C
:102CF00004F1080003F012FD054603E002E001E0E4
:102D0000012500BF00BF55B952482030006820F0AF
:102D10003000E16C08434F492031086000E0A846CC
:102D20004FF48053D4E9001019400020594040402E
:102D3000014337D1206EB0F5005F1AD004DC50B1EA
:102D4000B0F5805F1ED10DE0B0F5405F18D0B0F552
:102D5000804F17D115E03F48006840F400303D49EE
:102D6000086011E0002104F1080003F0D7FC0546DB
:102D70000AE0002104F1280003F082FD054603E08B
:102D800002E001E0012500BF00BF55B93148243001
:102D9000006820F4E040216E08432E492431086089
:102DA00000E0A8464FF40053D4E900101940002079
:102DB00059404040014335D1606EB0F5403F1ED0D0
:102DC00007DC68B1B0F5803F0BD0B0F5003F19D1FA
:102DD0000EE0B0F5802F13D0B0F5A02F12D110E087
:102DE00012E0012104F1080003F098FC05460BE015
:102DF000012104F1280003F043FD054604E003E04F
:102E000002E001E0012500BF00BF55B911482430A0
:102E1000006820F4E020616E08430E492431086008
:102E200000E0A8464FF48043D4E900011840002197
:102E300058404940084337D1D4F8B000B0F1405F62
:102E400020D009DC78B1B0F1805F0DD0B0F1005F27
:102E50001BD110E02C440258B0F1804F13D0B0F1D8
:102E6000A04F12D110E012E0012104F1080003F09C
:102E700055FC05460BE0012104F1280003F000FD9C
:102E8000054604E003E002E001E0012500BF00BFC9
:102E90004DB9FE48006820F0E040D4F8B010084377
:102EA000FA49086000E0A8464FF40042D4E9001057
:102EB00011400020134659404040014329D1206F62
:102EC000B0B1B0F1805F03D0B0F1005F11D108E084
:102ED000EE482C38006840F40030EC492C3908608A
:102EE00009E0012104F1080003F018FC054602E0A6
:102EF00001E0012500BF00BF55B9E448083800686B
:102F000020F04050216F0843E0490839086000E094
:102F1000A8464FF08072D4E90010114000201346FB
:102F20005940404001432AD1A06CB8B1012804D0D7
:102F300002280BD0032812D10FE0D4482C380068A7
:102F400040F40030D1492C3908600AE0022104F134
:102F5000080003F0E3FB054603E002E001E0012581
:102F600000BF00BF55B9C9480C38006820F0030005
:102F7000A16C0843C5490C39086000E0A8464FF42D
:102F80008002D4E900011040002113465840494016
:102F900008437DD1BE48006840F48070BC49086099
:102FA000FFF768F9064606E0FFF764F9801B64281E
:102FB00001D9032505E0B648006800F480700028B8
:102FC000F2D000BF85BBB1481830006800F44070F3
:102FD000B4F8B41001F44071884213D0AB481830F3
:102FE000006820F44077A9481830006840F4803029
:102FF000A649183108600846006820F4803008604F
:1030000008460760D4F8B400B0F5807F15D1FFF70B
:1030100031F9064609E0FFF72DF9801B41F28831AE
:10302000884202D9032507E038E098481830006844
:10303000C0F340000028EED000BF55BB00BFB4F87D
:10304000B40000F44070B0F5407F0ED18F4848388E
:10305000006820F47C518F4AD4F8B400104041EA53
:1030600010108A494839086007E0884848380068E5
:1030700020F47C508549483908608448183000683D
:10308000B4F8B410C1F30B0108438049183101E0D2
:1030900005E001E0086002E0A84600E0A846012241
:1030A000D4E900011040002113465840494008432C
:1030B00030D1E06F18281AD005DC48B1082808D0B4
:1030C000102817D10CE0202812D0282812D110E0A7
:1030D00012E0012104F1080003F020FB05460BE09B
:1030E000012104F1280003F0CBFB054604E003E0D6
:1030F00002E001E0012500BF00BF55B96348001F91
:10310000006820F03800E16F08436049091F08603B
:1031100000E0A8460222D4E9000110400021134635
:1031200058404940084329D1A06F062816D2DFE84D
:1031300000F003040B12131412E0012104F1080043
:1031400003F0ECFA05460BE0012104F1280003F03E
:1031500097FB054604E003E002E001E0012500BF23
:1031600000BF55B94948001F006820F00700A16F53
:1031700008434649091F086000E0A8460423D4E933
:1031800000101940002059404040014329D1D4F893
:103190009400062816D2DFE800F003040B12131483
:1031A00012E0012104F1080003F0B8FA05460BE033
:1031B000012104F1280003F063FB054604E003E06D
:1031C00002E001E0012500BF00BF4DB92F480068B3
:1031D00020F00700D4F8941008432C49086000E060
:1031E000A8462023D4E90001184000215840494056
:1031F000084337D1D4F89000B0F1405F1ED007DC0F
:1032000068B1B0F1805F0BD0B0F1005F19D10EE072
:10321000B0F1804F13D0B0F1A04F12D110E012E006
:10322000002104F1080003F079FA05460BE00221C1
:1032300004F1280003F024FB054604E003E002E06B
:1032400001E0012500BF00BF5DB91048001F006804
:1032500020F0E040D4F8901008430C49091F0860A2
:1032600000E0A8464023D4E900101940002059404E
:10327000404001433CD1D4F89C00B0F5406F25D0CC
:103280000EDCA0B1B0F5806F12D005E058440258B2
:1032900000480258FFFCFF0FB0F5006F19D10EE097
:1032A000B0F5805F13D0B0F5A05F12D110E012E04E
:1032B000002104F1080003F031FA05460BE0022179
:1032C00004F1280003F0DCFA054604E003E002E024
:1032D00001E0012500BF00BF4DB9FE48006820F4A1
:1032E000E050D4F89C100843FA49086000E0A84672
:1032F0008023D4E900101940002059404040014388
:1033000035D1D4F8A000B0F5C04F1ED007DC68B1AD
:10331000B0F5005F0BD0B0F5804F19D10EE0B0F5DD
:10332000004F13D0B0F5204F12D110E012E0002171
:1033300004F1080003F0F2F905460BE0022104F164
:10334000280003F09DFA054604E003E002E001E0F6
:10335000012500BF00BF4DB9DE48006820F4604081
:10336000D4F8A0100843DB49086000E0A846082311
:10337000D4E900101940002059404040014317D1C2
:10338000D4F88400B0F5805F07D1022104F1280051
:1033900003F076FA08B14FF00108CE48001F00682C
:1033A00020F44050D4F884100843CA49091F08602B
:1033B0001023D4E900101940002059404040014337
:1033C00015D1D4F89800B0F5807F07D1022104F11F
:1033D000280003F055FA08B14FF00108BD48006815
:1033E00020F44070D4F898100843BA4908604FF4AC
:1033F0000022D4E900011040002113465840494002
:10340000084327D1D4F8A40030B1B0F5803F0AD0EA
:10341000B0F5003F0FD10DE0002104F1080003F0EA
:103420007DF9054609E0022104F1280003F028FA9D
:10343000054602E001E0012500BF00BF4DB9A548E7
:10344000006820F44030D4F8A4100843A149086073
:1034500000E0A8464FF48023D4E900011840002181
:103460005840494008432DD1D4F88800B0F5801F5A
:1034700006D0B0F5001F0CD0B0F5401F11D10FE001
:1034800094482C38006840F4003092492C39086088
:1034900009E0012104F1280003F0F2F9054602E0F9
:1034A00001E0012500BF00BF5DB98A48001F006828
:1034B00020F44010D4F8881008438649091F08609A
:1034C00000E0A8464FF48032D4E90001104000210A
:1034D000134658404940084325D1206D18B1B0F536
:1034E000803F10D108E07B482C38006840F4003061
:1034F00078492C39086008E0022104F1080003F043
:103500000DF9054601E0012500BF00BF55B971481E
:103510000C38006820F48030216D08436D490C3967
:10352000086000E0A8464FF00052D4E900101140B6
:103530000020134659404040014307D1022104F1C5
:10354000280003F09DF908B14FF001084FF4003353
:10355000D4E900011840002158404940084329D1CE
:10356000D4F88000A0B1B0F5807F06D0B0F5007F20
:103570000CD0B0F5407F0CD109E056482C380068DB
:1035800040F4003053492C39086004E003E002E0C5
:1035900001E0012500BF00BF5DB94E48001F006873
:1035A00020F44070D4F8801008434A49091F08608D
:1035B00000E0A8464FF48012D4E90010114000202A
:1035C000134659404040014309D142480838006839
:1035D00020F00040616F08433E49083908604FF011
:1035E0008052D4E900101140002013465940404059
:1035F00001430AD137484838006820F48040D4F8A5
:10360000B81008433349483908604FF40012D4E930
:10361000001011400020134659404040014309D199
:103620002C480838006820F08070E16E0843294972
:10363000083908604FF08042D4E9001011400020A2
:10364000134659404040014311D100BF214848383A
:10365000006820F400401F494839086008460068A7
:10366000D4F8BC1008431B494839086000BF4FF02C
:103670000042D4E900101140002013465940404058
:10368000014309D113480C38006820F04050616DA7
:10369000084310490C3908604FF40002D4E90010C7
:1036A0001140002013465940404001430AD10948C7
:1036B000001F006820F44000D4F88C10084305492E
:1036C000091F086001230021606818400122494059
:1036D000504001E058440258014306D104F108006B
:1036E00003F01CF8054605B1A846022200216068D7
:1036F000104049405040014307D1012104F1080026
:1037000003F00CF8054605B1A846042300206168C3
:103710001940042240405140084307D1022104F1DE
:10372000080002F0FBFF054605B1A846082300216A
:1037300060681840082249405040014306D104F116
:10374000280003F09DF8054605B1A8461022002187
:103750006068104049405040014307D1012104F105
:10376000280003F08DF8054605B1A8462022002068
:103770006168114040405140084307D1022104F1E3
:10378000280003F07DF8054605B1A846B8F1000F02
:1037900002D10020BDE8F0810120FBE72DE9F041D6
:1037A00004460D4614B90120BDE8F081BD4800680B
:1037B00000F00F00A8420ED2BA48006820F00F00B7
:1037C0002843B84908600846006800F00F00A84286
:1037D00001D00120E8E7207800F0040004280ED191
:1037E000B1492069096801F07001884207D9AE48E3
:1037F000006820F0700021690843AB490860207818
:1038000000F00800082811D1A749091D606909685E
:1038100001F07001884209D9A348001D006820F01A
:10382000700061690843A049091D0860207800F014
:103830001000102811D19C49091DA069096801F4E4
:10384000E061884209D99848001D006820F4E060D2
:10385000A16908439449091D0860207800F0200000
:10386000202811D190490831E069096801F0700100
:10387000884209D98C480830006820F07000E1695E
:103880000843894908310860207800F002000228C6
:103890000ED18549E068096801F00F01884207D917
:1038A0008148006820F00F00E16808437E49086005
:1038B000207800F00100002850D07B48006820F4F8
:1038C0007060A1680843784908606068022807D1E1
:1038D000754818380068C0F34040F8B9012063E724
:1038E0006068032807D1704818380068C0F340604A
:1038F000A0B9012058E76068012807D16A48183844
:103900000068C0F3002048B901204DE76648183828
:103910000068C0F3800008B9012045E76248083814
:10392000006820F00700616808435F4908390860B3
:10393000FEF7A0FC064608E0FEF79CFC801B41F267
:103940008831884201D903202EE75748083800689B
:1039500000F038006168B0EBC10FEDD1207800F0C5
:10396000020002280ED15049E068096801F00F01F9
:10397000884207D24C48006820F00F00E1680843F5
:10398000494908604748006800F00F00A8420ED976
:103990004448006820F00F00284342490860084668
:1039A000006800F00F00A84201D00120FCE620785A
:1039B00000F0040004280ED13B492069096801F099
:1039C0007001884207D23848006820F070002169F1
:1039D000084335490860207800F00800082811D114
:1039E0003149091D6069096801F07001884209D2F6
:1039F0002D48001D006820F07000616908432A49C5
:103A0000091D0860207800F01000102811D1264907
:103A1000091DA069096801F4E061884209D22248C1
:103A2000001D006820F4E060A16908431E49091DDB
:103A30000860207800F02000202811D11A490831B0
:103A4000E069096801F07001884209D2164808301F
:103A5000006820F07000E1690843134908310860EC
:103A600000F0ACF810490968C1F303210F4A515C1A
:103A700001F01F0120FA01F70B48006800F00F0069
:103A80001146085C00F01F0027FA00F008490860A2
:103A90000848076008480068FEF72EFC804640464C
:103AA00082E600000020005218440258D4A000080A
:103AB0001400002410000024080000243F220260AB
:103AC000174A126802F007024260154A083212686B
:103AD00002F470628260124A0832126802F00F0229
:103AE000C2600F4A0832126802F0700202610C4A8A
:103AF0000C32126802F070024261094A0C321268FC
:103B000002F4E0628261064A1032126802F070022A
:103B1000C261044A126802F00F020A607047000096
:103B2000104402580020005210B500F047F80D492B
:103B30000968C1F303210C4A515C01F01F0120FA0E
:103B400001F40848006800F00F001146085C00F01E
:103B50001F0024FA00F00549086005480460084683
:103B6000006810BD18440258D4A0000814000024B6
:103B70001000002400B5FFF7D7FF05490968C1F31D
:103B80000211044A515C01F01F01C84000BD000051
:103B90001C440258D4A0000800B5FFF7C5FF054932
:103BA0000968C1F30221044A515C01F01F01C840B9
:103BB00000BD00001C440258D4A00008F0B5824E9D
:103BC000366806F0380636B1082E15D0102E15D0FE
:103BD000182E7DD114E07C4E103E3668C6F3401698
:103BE00046B1794E103E3668C6F3C107774E26FAC5
:103BF00007F000E07548E5E07548E3E07548E1E06E
:103C0000714E1836366806F003046F4E1836366863
:103C1000C6F305116C4E1C36366806F001056A4E77
:103C200024363668C6F3CC0616FB05F601EE106A9C
:103C3000B8EE410A002971D024B1012C50D0022CD9
:103C40006DD16DE0604E103E3668C6F340163EB34F
:103C50005D4E103E3668C6F3C1075C4E26FA07F388
:103C600001EE103AF8EE411A01EE101AB8EE411AC0
:103C700081EE812A9FED581AC0EE011A524E20366D
:103C80003668C6F3080601EE106AB8EE411A31EE46
:103C9000811AF7EE001A31EE211A62EE010A1EE0D7
:103CA00001EE101AB8EE411ADFED4C1A81EE812AAE
:103CB0009FED491AC0EE011A434E20363668C6F30E
:103CC000080601EE106AB8EE411A31EE811A00E0E2
:103CD00076E0F7EE001A31EE211A62EE010A5BE09F
:103CE00001EE101AB8EE411A9FED3D2AC2EE011AFC
:103CF0009FED391A80EE012A334E20363668C6F31E
:103D0000080601EE106AB8EE411A32EE011AB7EE5B
:103D1000002A31EE021A61EE810A3DE04EE01DE01C
:103D200001EE101AB8EE411ADFED2E1A81EE812A4B
:103D30009FED291AC0EE011A234E20363668C6F3CD
:103D4000080601EE106AB8EE411A31EE811AF7EE5C
:103D5000001A31EE211A62EE010A1DE001EE101A7E
:103D6000B8EE411A9FED1E2AC2EE011A9FED1A1AF3
:103D700080EE012A144E20363668C6F3080601EE9E
:103D8000106AB8EE411A32EE011AB7EE002A31EE8F
:103D9000021A61EE810A00BF00BF0B4E2036366862
:103DA000C6F34626721C01EE102AB8EE411AC0EE88
:103DB000811ABCEEE11A11EE100A00E0002001E0C9
:103DC000034800BF00BFF0BD104402580090D0036C
:103DD00000093D0040787D01000000460024744C3D
:103DE0000024744A20BCBE4B2DE9F047044614B9A8
:103DF0000120BDE8F087207800F00100002870D095
:103E0000FA48006800F03808F8481830D0F80090F8
:103E1000B8F1100F06D0B8F1180F0FD109F0030058
:103E200002280BD1F14810380068C0F34040002848
:103E30006AD06068002867D10120DAE700BF6068B7
:103E4000B0F5803F08D1E9481038006840F4803070
:103E5000E649103908602EE0606868B9E348103818
:103E6000006820F48030E149103908600846006895
:103E700020F4802008601EE06068B0F5A02F0DD10E
:103E8000DA481038006840F48020D84910390860BA
:103E90000846006840F4803008600CE0D3481038D1
:103EA000006820F48030D149103908600846006865
:103EB00020F48020086000BF606898B1FEF7DAF94E
:103EC000054606E0FEF7D6F9401B642801D9032019
:103ED0008FE7C64810380068C0F340400028F1D092
:103EE00012E012E0FEF7C6F9054606E0FEF7C2F959
:103EF000401B642801D903207BE7BC4810380068C8
:103F0000C0F340400028F1D100BF207800F002004B
:103F1000022874D1B548006800F03808B34818305A
:103F2000D0F80090B8F1000F05D0B8F1180F56D1B5
:103F300009F00300D0BBAD4810380068C0F3800022
:103F400018B1E06808B9012053E7A84810380068A4
:103F500020F01900E1680843A44910390860FEF711
:103F600089F9054606E0FEF785F9401B022801D9CC
:103F700003203EE79D4810380068C0F38000002809
:103F8000F1D000BFFEF770F941F2030188421AD860
:103F9000206940280BD195480C38006820F47C300B
:103FA00040F4003091490C39086017E017E08F4861
:103FB0000C38006820F47C30216940EA01308B49DC
:103FC0000C3908600AE089480C38006820F0FE408F
:103FD000217C40EA016085490C39086066E0E068B0
:103FE00088B382481038006820F01900E16808435F
:103FF0007E4910390860FEF73DF9054607E056E0B6
:10400000FEF738F9401B022801D90320F1E6774872
:1040100010380068C0F380000028F1D000BFFEF720
:1040200023F941F2030188421AD8206940280BD1B4
:104030006E480C38006820F47C3040F400306B4946
:104040000C39086017E017E068480C38006820F465
:104050007C30216940EA013064490C3908600AE08B
:1040600062480C38006820F0FE40217C40EA016084
:104070005E490C39086019E05C481038006820F08F
:1040800001005A4910390860FEF7F4F8054606E0C9
:10409000FEF7F0F8401B022801D90320A9E6534897
:1040A00010380068C0F380000028F1D100BF2078EC
:1040B00000F0100010287CD14C48006800F038084F
:1040C0004A481830D0F80090B8F1080F06D0B8F17F
:1040D000180F3DD109F00300012839D143481038A9
:1040E0000068C0F3002020B1E069802801D00120E1
:1040F0007FE600BFFEF7B8F841F2030188421AD804
:10410000206A20280AD139480C38006820F0F8408D
:1041100040F0804035490C39086018E033480C38CD
:10412000006820F0F84094F8201040EA81602F49A0
:104130000C3908600BE02D48001F006820F07C500F
:1041400094F8201040EA01602849091F086066E0E1
:10415000E06978B325481038006840F080002349B2
:1041600010390860FEF786F8054606E0FEF782F88B
:10417000401B022801D903203BE61C481038006888
:10418000C0F300200028F1D000BFFEF76DF841F227
:10419000030188421CD8206A20280CD113480C380F
:1041A000006820F0F84040F0804010490C39086069
:1041B0001AE035E01CE00D480C38006820F0F840AB
:1041C00094F8201040EA816008490C3908600BE03F
:1041D0000648001F006820F07C5094F8201040EA48
:1041E00001600249091F086019E0000010440258EC
:1041F000FA48006820F08000F8490860FEF73AF8B5
:10420000054606E0FEF736F8401B022801D90320D8
:10421000EFE5F2480068C0F300200028F2D100BFAB
:10422000207800F00800082836D16069D0B1EB484A
:104230007430006840F00100E84974310860FEF70E
:1042400019F8054606E0FEF715F8401B022801D9CB
:104250000320CEE5E14874300068C0F34000002838
:10426000F1D019E0DD487430006820F00100DB492E
:1042700074310860FDF7FEFF054606E0FDF7FAFF22
:10428000401B022801D90320B3E5D44874300068EC
:10429000C0F340000028F1D1207800F02000202851
:1042A00030D1A069B8B1CD48006840F48050CB4906
:1042B0000860FDF7DFFF054606E0FDF7DBFF401B6A
:1042C000022801D9032094E5C4480068C0F34030B7
:1042D0000028F2D016E0C148006820F48050BF49A1
:1042E0000860FDF7C7FF054606E0FDF7C3FF401B6A
:1042F000022801D903207CE5B8480068C0F34030AB
:104300000028F2D1207800F0040004287DD1B448C0
:10431000006840F48070B2490860FDF7ABFF0546C5
:1043200006E0FDF7A7FF401B642801D9032060E5E4
:10433000AB48006800F480700028F2D000BFA0688D
:10434000012808D1A5487030006840F00100A34959
:10435000703108602DE0A06868B9A048703000682E
:1043600020F001009D49703108600846006820F087
:10437000040008601DE0A06805280DD19748703042
:10438000006840F0040095497031086008460068F4
:1043900040F0010008600CE090487030006820F0A8
:1043A00001008E49703108600846006820F0040062
:1043B000086000BFA068A0B1FDF75CFF054608E0FB
:1043C000FDF758FF401B41F28831884201D9032094
:1043D0000FE5824870300068C0F340000028EFD03D
:1043E00013E0FDF747FF054608E0FDF743FF401BDC
:1043F00041F28831884201D90320FAE477487030CD
:104400000068C0F340000028EFD1606A00287DD02A
:1044100072481030006800F03800182877D0606AC1
:10442000022875D16D48006820F080706B490860E3
:10443000FDF720FF054606E0FDF71CFF401B0228A4
:1044400001D90320D5E465480068C0F34060002826
:10445000F2D100BFD4E90A1041EA00105F492831C7
:10446000096840F2F332914308435C4928310860FF
:10447000208E401EC0F30800616B491E4FF47E423F
:1044800002EA41210843218F491ED20102EA01417B
:1044900008433C21095D491E120202EA01610843FA
:1044A0004E493031086000BF081F006820F001004D
:1044B000091F08604948343000684FF6F871884396
:1044C000A16C40EAC10045493431086043482C30B2
:1044D000006820F00C00216C084340492C31086032
:1044E0000846006820F00200616C08433B492C310B
:1044F00008600846006840F480300860084600689C
:1045000040F4003008600846006802E093E038E0BC
:104510001FE040F4802008600846006840F0010079
:1045200008602E48006840F080702C490860FDF754
:10453000A1FE054606E0FDF79DFE401B022801D9BD
:10454000032056E425480068C0F340600028F2D0FC
:1045500071E02248006820F0807020490860FDF773
:1045600089FE054606E0FDF785FE401B022801D9BD
:1045700003203EE419480068C0F340600028F2D1EF
:1045800059E0164828300768144830300668606AD9
:10459000012821D007F00301A06A81421CD1C7F392
:1045A0000511E06A884217D1C6F30801206B401E4E
:1045B000814211D1606B401EC6F3462188420BD167
:1045C000A06B401EC6F30641884205D1E06B401E39
:1045D000C6F30661884205D001200AE4004402586F
:1045E0000048025815480068C0F3CC07A06CB842D8
:1045F00021D012480838006820F001000F4908391E
:104600000860FDF737FE054600BFFDF733FE401B8F
:10461000FBD00A4800684FF6F8718843A16C40EA65
:10462000C1000649086005480838006840F00100EC
:1046300002490839086000204AE400003444025866
:1046400070B504460CB9012070BD606A00B900BFA6
:104650000021A1626349206888420CD06249206829
:10466000884208D061492068884204D0E0680F2859
:1046700001D90120E8E7204602F01FFA0546594912
:104680002068884209D058492068884205D0574997
:104690002068884201D0082D0DD8524920688842F0
:1046A00007D051492068884203D050492068884289
:1046B00003D1102D01D90120C6E794F8810028B953
:1046C000002084F88000204600F092F8022084F850
:1046D00081002068006820F00100216808602068DF
:1046E000806800F4F816A069B0F1806F11D160689D
:1046F000B0F5800F01D1A06B28B1606848B9A06BFC
:10470000B0F1805F05D12068006840F480502168D6
:104710000860606800F48000B0F5800F0BD1E0689D
:10472000072808D32068006820F48070216D0843B2
:104730002168086005E02068006820F48070216826
:104740000860A16AE06908433043E16B0843E1680F
:10475000084321688860616A606B0843A16B084365
:10476000A16908432169084361690843216A084334
:1047700061680843E16C0843A1680843A16C0843E1
:10478000A16D08432168C860606878B920688068B6
:1047900020F4C05040F40060216888602068806880
:1047A00020F4C06040F48060216888602068006D5B
:1047B00020F0010021680865606800F48000B0F511
:1047C000800F07D12068C06820F00040616D084369
:1047D0002168C8600020C4F88400012084F88100AA
:1047E000002031E70030014000380040003C00402C
:1047F00010B5B8B00446142132A8FBF78FFFC021D2
:1048000002A8FBF78BFF1E492068884235D181142E
:104810000020CDE902101A9002A8FEF70BF908B1AA
:10482000FCF76AFF00BF1748006840F48050154944
:1048300008600846006800F48050019000BF00BF87
:1048400000BF10481038006840F001000D491039D1
:1048500008600846006800F00100019000BF00BF3A
:10486000E0203290022033900020349035900520D3
:10487000369032A90448FDF7F3FB38B010BD0000B4
:1048800000300140F0440258000002582DE9FF4F6B
:1048900085B004469846129E206820300490206817
:1048A00000F1300BE06B4009401C80B20290FDF734
:1048B000E1FC03904746454694F88100012803D067
:1048C000022009B0BDE8F08F069820B1079810B11A
:1048D000B8F1000F01D10120F3E700BF94F8800088
:1048E000012801D10220ECE7012084F8800000BFFC
:1048F000052084F881000020C4F8840007986066D1
:10490000A4F86A80A4F868800698E065A4F862803C
:10491000A4F860800020206760672068C06820F4E9
:10492000C0202168C860EB492068884207D0EA4966
:104930002068884203D0E9492068884202D14FF0BC
:10494000100A01E04FF0080A206840686FF30F007A
:1049500040EA0800216848602068006840F00100D3
:10496000216808606068B0F5800F05D12068006894
:1049700040F4007021680860E0680F2869D94FEAA8
:104980009A0A61E02068406900F00200022812D112
:104990008FB107EB0A00A8420DD9E06D00682168CD
:1049A0000862E06D001DE065B4F86200401EA4F8E6
:1049B0006200B4F862702068D0F814903DB32068AB
:1049C000406900F0010070B12068006B616E086002
:1049D000606E001D6066B4F86A00401EA4F86A00AC
:1049E000B4F86A5030E00298854211DA09F40040C8
:1049F00070B12068006B616E0860606E001D6066BB
:104A0000B4F86A00401EA4F86A00B4F86A501BE0CB
:104A1000FDF730FC0399401AB04201D3701C00B975
:104A200096B9204601F0DEFFD4F8840040F480708F
:104A3000C4F88400012084F8810000BF002084F8BD
:104A4000800000BF03203CE7002F9BD1002D99D1AF
:104A50001EE1E06807287CD94FEA5A0A7AE020680C
:104A6000406900F00200022811D187B107EB0A006B
:104A7000A8420CD954F85C0F018804980180206882
:104A8000801C2060E088401EE080E7885C3C206855
:104A9000D0F81490002D5DD02068406900F001002E
:104AA00068B1BBF8000054F8641F08802068801CBF
:104AB0002060E088401EE080E588643C4AE002987F
:104AC000854217DA09F40040A0B1BBF8000054F8A1
:104AD000641F08802068801C2060BBF800002168EB
:104AE00008802068801C2060E088801EE080E588C7
:104AF000643C2FE0012D10D109F4005068B1BBF8DF
:104B0000000054F8641F08802068801C2060E08842
:104B1000401EE080E588643C1CE0FDF7ABFB039998
:104B2000401AB04201D3701C00B99EB9204601F072
:104B300059FFD4F8840040F48070C4F88400012048
:104B400084F8810000BF002084F8800000BF0320AB
:104B5000B7E604E0002F82D1002D80D198E092E0EA
:104B60002068406900F00200022813D197B107EBDA
:104B70000A00A8420ED9E06D0078216881F8200073
:104B8000E06D401CE065B4F86200401EA4F86200CD
:104B9000B4F862702068D0F81490002D73D02068AB
:104BA000406900F0010078B1206890F83000616E33
:104BB0000870606E401C6066B4F86A00401EA4F87D
:104BC0006A00B4F86A505EE0029885422ADA09F475
:104BD000004038B3206890F83000616E0870606E55
:104BE000401C6066206890F83000616E0870606E4E
:104BF000401C6066206890F83000616E0870606E3E
:104C0000401C6066206890F83000616E0870606E2D
:104C1000401C6066B4F86A00001FA4F86A00B4F88B
:104C20006A5030E0042D12D209F4C04078B12068F7
:104C300090F83000616E0870606E401C6066B4F8D9
:104C40006A00401EA4F86A00B4F86A501BE0FDF741
:104C500011FB0399401AB04201D3701C00B996B9F8
:104C6000204601F0BFFED4F8840040F48070C4F800
:104C70008400012084F8810000BF002084F88000B7
:104C800000BF03201DE6002F7FF46AAF002DFBD18B
:104C900003983346002208210090204601F02AFFA5
:104CA00028B1D4F8840040F02000C4F884002046E5
:104CB00001F098FE012084F8810000BF002084F8F4
:104CC000800000BFD4F8840008B10120F9E500207D
:104CD000F7E500000030014000380040003C004093
:104CE000704770477047000030B502460B4600BF62
:104CF00092F83C00012801D1022030BD012082F849
:104D00003C0000BF022082F83D0010684168106836
:104D10008468214D1068A84203D0204D1068A84235
:104D200003D121F470015868014321F07001186823
:104D3000014310684160184D1068A8421BD01068EC
:104D4000B0F1804F17D0164D1068A84213D0154D02
:104D50001068A8420FD0144D1068A8420BD00F4D18
:104D60001068A84207D0114D1068A84203D0104D1A
:104D70001068A84205D124F08004986804431068A4
:104D80008460012082F83D0000BF002082F83C00D2
:104D900000BF00BFB1E70000000001400004014077
:104DA0000004004000080040000C004000180040D3
:104DB0000040014010B504460CB9012010BD94F824
:104DC0003D0028B9002084F83C00204600F02AF875
:104DD000022084F83D00211D206801F0C9FF012058
:104DE00084F8480000BF84F83E0001213F200155AF
:104DF00040200155412001554220015543200155D5
:104E000000BF00BF012084F8440045200155462022
:104E100001554720015500BF012084F83D000020C6
:104E2000CCE7000038B504462068B0F1804F15D1BA
:104E300000BF0B48006840F00100094908600846BF
:104E4000006800F00100009000BF00BF00220521B3
:104E50001C20FDF72BFB1C20FDF714FB38BD0000C8
:104E6000E8440258014691F83D00012801D0012094
:104E70007047022081F83D000868C06840F00100DA
:104E80000B68D8601C4B086898421BD00868B0F1CA
:104E9000804F17D0194B0868984213D0184B0868F8
:104EA00098420FD0174B086898420BD0164B0868F1
:104EB000984207D0154B0868984203D0144B0868F5
:104EC000984210D108688068124B00EA0302062A53
:104ED0000FD0B2F5803F0CD00868006840F00100A8
:104EE0000B68186005E00868006840F001000B6876
:104EF00018600020BCE700000000014000040040F2
:104F000000080040000C0040000401400018004070
:104F100000400140070001002DE9F04104460D4624
:104F2000002700BF94F83C00012802D10220BDE810
:104F3000F081012084F83C0000BF022084F83D008D
:104F4000206886684048064026F47F4620688660D0
:104F50002868702826D00CDC00F00F01002966D1EB
:104F60000011072863D2DFE800F0555657584B3739
:104F70004100B0F1101F52D009DCB0F5805F10D0B5
:104F8000B0F5005F1BD0B0F5801F50D146E0A0F512
:104F900080102038002843D0102842D0202846D145
:104FA00040E046E0D5E902136A68206801F04AFF54
:104FB0002068866846F077062068866039E0D5E983
:104FC00002136A68206801F03DFF2068806840F4A1
:104FD0008040216888602CE0EA686968206801F0F8
:104FE00049FF5021206801F039FF22E0EA68696832
:104FF000206801F052FF6021206801F02FFF18E0C7
:10500000EA686968206801F035FF4021206801F0F6
:1050100025FF0EE000BF00BF00BF00BF00BF00BF04
:1050200000BF00BF2968206801F018FF01E00127D8
:1050300000BF00BF012084F83D0000BF002084F8BD
:105040003C0000BF384672E788FFCEFF704770B55E
:1050500004462068C6682068056905F00200022839
:1050600019D106F00200022815D1401F21680861FD
:10507000012020772068806900F0030018B12046E5
:10508000FFF7E4FF05E0204600F0ADF8204600F011
:10509000ABF80020207705F00400042819D106F0B1
:1050A0000400042815D1C04321680861022020773C
:1050B0002068806900F4407018B12046FFF7C6FFF1
:1050C00005E0204600F08FF8204600F08DF8002023
:1050D000207705F00800082819D106F008000828F4
:1050E00015D1C04321680861042020772068C06979
:1050F00000F0030018B12046FFF7A8FF05E02046A6
:1051000000F071F8204600F06FF80020207705F0DD
:105110001000102819D106F01000102815D1C04336
:1051200021680861082020772068C06900F4407079
:1051300018B12046FFF78AFF05E0204600F053F83B
:10514000204600F051F80020207705F0010048B11A
:1051500006F0010030B16FF00100216808612046BF
:1051600000F044F805F08000802804D005F40050D9
:10517000B0F5005F0AD106F08000802806D16FF4F8
:105180000250216808612046FFF7ABFD05F48070EE
:10519000B0F5807F0AD106F08000802806D16FF438
:1051A0008070216808612046FFF79AFD05F04000F5
:1051B000402809D106F04000402805D1C0432168AD
:1051C0000861204600F024F805F02000202809D1CD
:1051D00006F02000202805D1C04321680861204640
:1051E000FFF780FD70BD70477047000010B50446A2
:1051F00006492068884201D1FDF742F82068B0F1E5
:10520000804F01D102F02EFB10BD000000000140D4
:105210007047014600BF91F88400012801D10220A7
:105220007047012081F8840000BF2420C1F8880065
:10523000086802680868006820F001000B681860C0
:1052400022F0005200204866086802602020C1F861
:10525000880000BF002081F8840000BF00BFDFE7A6
:105260007047704770B504460D4600BF94F884003F
:10527000012801D1022070BD012084F8840000BF04
:105280002420C4F88800206806682068006820F0A0
:105290000100216808602068806820F06060284371
:1052A00021688860204601F043FE206806602020C7
:1052B000C4F8880000BF002084F8840000BF00BF4D
:1052C000D9E770B504460D4600BF94F88400012864
:1052D00001D1022070BD012084F8840000BF242089
:1052E000C4F88800206806682068006820F0010083
:1052F000216808602068806820F0604028432168A9
:105300008860204601F014FE206806602020C4F862
:10531000880000BF002084F8840000BF00BFD9E7E8
:1053200070477047704700002DE9F0470446206839
:10533000C569206806682068876840F60F0005EA9E
:105340000009B9F1000F0FD105F0200060B106F09F
:10535000200010B907F0805030B1606F10B12046C6
:10536000616F8847BDE8F087B9F1000F7ED0F8483B
:10537000384018B9F74830400028F7D005F0010050
:1053800058B106F4807040B1012021680862D4F859
:10539000900040F00100C4F8900005F0020058B100
:1053A00007F0010040B1022021680862D4F89000A3
:1053B00040F00400C4F8900005F0040058B107F074
:1053C000010040B1042021680862D4F8900040F048
:1053D0000200C4F8900005F0080070B106F020004B
:1053E00010B9DB48384040B1082021680862D4F881
:1053F000900040F00800C4F8900005F4006060B12F
:1054000006F0806048B14FF4006021680862D4F86B
:10541000900040F02000C4F89000D4F890000028DC
:1054200052D005F0200050B106F0200010B907F06E
:10543000805020B1606F10B12046616F8847D4F86A
:1054400090A02068806800F04000402802D00AF058
:10545000280070B3204601F093FE2068806800F0B9
:105460004000402826D100BF00BF00E02DE02168A9
:10547000083151E8001F21F040002168083141E85F
:105480000002002AF1D100BFD4F8800068B1B24810
:10549000D4F880100865D4F88000FCF701FC98B1BE
:1054A000D4F88000016D88470EE02046FFF73AFFF0
:1054B0000AE003E02046FFF735FF05E02046FFF74E
:1054C00031FF0020C4F890004CE7E06E01287DD148
:1054D00005F01000002879D006F010000028FAD05E
:1054E0001020216808622068806800F04000402891
:1054F0006DD1D4F880000068984988426BD0D4F808
:105500008000006895491831884264D0D4F8800042
:1055100000689249303188425DD0D4F8800000683C
:105520008E494831884256D0D4F8800000688B49B3
:10553000603188424FD0D4F88000006887497831C4
:10554000884248D0D4F8800000688449903188426D
:1055500041D0D4F8800000688049A83188423AD010
:10556000D4F8800000687E49884234D0D4F88000A6
:1055700000687B49183188422DD0D4F8800000683B
:1055800077493031884226D0D4F8800000687449C9
:10559000483188421FD0D4F88000006870496031DB
:1055A000884218D0D4F8800000686D49783188426C
:1055B00011D0D4F8800000686949903188420AD03F
:1055C000D4F8800000686649A83102E0CAE07BE0B8
:1055D00001E0884204D1D4F880000068406803E00C
:1055E000D4F88000006840681FFA80F8B8F1000F16
:1055F00058D0B4F85C00404554DDA4F85E80D4F87F
:105600008000C069B0F5807F40D000BF00BF216836
:1056100051E8001F21F48070226842E8000100294F
:10562000F5D100BF00BF00BF2168083151E8001F5D
:1056300021F001002168083141E80002002AF3D17D
:1056400000BF00BF00BF2168083151E8001F21F0F2
:1056500040002168083141E80002002AF3D100BF70
:105660002020C4F88C000020E06600BF00BF216845
:1056700051E8001F21F01000226842E800010029D3
:10568000F5D100BFD4F88000FCF79CF80220206719
:10569000B4F85C00B4F85E20801A81B22046FFF7AF
:1056A000DFFD10E0B4F85C0040450CD1D4F8800078
:1056B000C069B0F5807F06D102202067B4F85C1085
:1056C0002046FFF7CDFD4DE634F85C0F6188401AA7
:1056D0001FFA80F860885C3CC8B3B8F1000F36D080
:1056E00000BF00BF216851E8001F21F490702268BC
:1056F00042E800010029F5D100BF00BF00BF2168CA
:10570000083151E8001F124AD24301EA0200216821
:10571000083141E80002002AF1D100BF2020C4F87E
:105720008C000020E066606700BF00BF216851E880
:10573000001F21F01000226842E800010029F5D185
:1057400000BF0220206741462046FFF789FD09E699
:1057500001000010200100046B71000810000240DD
:105760001004024005F4801050B107F4800038B1F5
:105770004FF48010216808622046FFF7D2FDF1E562
:1057800005F0800058B106F0800010B907F4000061
:1057900028B1A06F10B12046A16F8847E2E505F05F
:1057A000400030B106F0400018B1204601F01EFD67
:1057B000D8E505F4000030B106F0804018B120466D
:1057C000FFF7AEFDCEE505F0807030B106F0004089
:1057D00018B12046FFF745FDC4E500BFC2E510B58E
:1057E00004460CB9012010BDA06900B100E000BF63
:1057F000D4F8880028B9002084F88400204600F0FE
:105800002BF82420C4F888002068006820F00100EC
:1058100021680860A06A10B1204601F0B5FB20465F
:1058200001F0FCFC012800D1DDE72068406820F48D
:105830009040216848602068806820F02A00216834
:1058400088602068006840F00100216808602046F8
:1058500001F016FCC7E7000010B5B8B004461421EB
:1058600032A8FAF75BFFC02102A8FAF757FF2249D6
:10587000206888423ED101210020CDE9021021900C
:1058800002A8FDF7D7F808B1FBF736FF00BF1B48A9
:10589000006840F01000194908600846006800F0F0
:1058A0001000019000BF00BF00BF1448103800680E
:1058B00040F002001149103908600846006800F005
:1058C0000200019000BF00BF4FF440403290022020
:1058D00033900020349035900420369032A9084847
:1058E000FCF7BEFB002205212520FCF7DFFD25206B
:1058F000FCF7C8FD38B010BD00100140F04402585C
:10590000000402582DE9F84F04460E461746994602
:10591000D4F88800202854D106B117B90120BDE879
:10592000F88F00205434E06321206063FCF7A2FC70
:10593000824627806780543CA068B0F5805F04D120
:10594000206910B90025B04602E035464FF0000846
:1059500020E05346002280212046CDF8009001F03F
:1059600023FF20B12020C4F888000320D7E745B9E1
:10597000B8F80000C0F308002168886208F1020846
:1059800003E02878216888626D1CB4F85600401E38
:10599000A4F85600B4F856000028DAD15346002285
:1059A00040212046CDF8009001F0FEFE20B12020DD
:1059B000C4F888000320B2E72020C4F88800002043
:1059C000ADE70220ABE7704700BFFEE710B52B48FC
:1059D0000068006840F001002849096808606420F8
:1059E000FCF72AFB012210212548FCF737FC012097
:1059F000FCF722FB002210212148FCF72FFC01209C
:105A0000FCF71AFB012210211D48FCF727FC0A2095
:105A1000FCF712FB0021762000F0F8F8752000F06A
:105A200031F80446472C01D0012010BD012111207E
:105A300000F0ECF80A20FCF7FFFA0F214E2000F0EE
:105A4000E5F83220FCF7F8FA06214F2000F0DEF8E6
:105A50000621502000F0DAF84321512000F0D6F85A
:105A60004321532000F0D2F80F214E2000F0CEF851
:105A70003220FCF7E1FA0020D7E70000A400002460
:105A80000000025870B50446002210210848FCF7B7
:105A9000E5FB44F0800001F01DF8FF2001F01AF84A
:105AA0000546012210210248FCF7D8FB284670BDAC
:105AB000000002582DE9F04105460E461746002227
:105AC00010210C48FCF7CAFB45F0800001F002F8F9
:105AD000002405E0FF2000F0FDFF3055601C84B27B
